:020000000D05EC
:020001000906EE
:020002000809EB
:020003000907EB
:020004000908E9
:02000500056490
:02000600006494
:020007000400F3
:020008000005F1
:020009000D05E3
:02000A000906E5
:02000B000809E2
:02000C000907E2
:02000D000908E0
:02000E00056487
:02000F0000648B
:020010000400EA
:020011000005E8
:020012000D05DA
:020013000906DC
:020014000809D9
:020015000907D9
:020016000908D7
:0200170005647E
:02001800006482
:020019000400E1
:02001A000005DF
:02001B000D05D1
:02001C000906D3
:02001D000809D0
:02001E000907D0
:02001F000908CE
:02002000056475
:02002100006479
:020022000400D8
:020023000005D6
:020024000D05C8
:020025000906CA
:020026000809C7
:020027000907C7
:020028000908C5
:0200290005646C
:02002A00006470
:02002B000400CF
:02002C000005CD
:02002D000D05BF
:02002E000906C1
:02002F000809BE
:020030000907BE
:020031000908BC
:02003200056463
:02003300006467
:020034000400C6
:020035000005C4
:020036000D05B6
:020037000906B8
:020038000809B5
:020039000907B5
:02003A000908B3
:02003B0005645A
:02003C0000645E
:02003D000400BD
:02003E000005BB
:02003F000D05AD
:00000001FF
